:100000000C9446000C9465000C9465000C946500FB
:100010000C9465000C9465000C9465000C946500CC
:100020000C9465000C9465000C9465000C946500BC
:100030000C9465000C94DE000C9465000C94650033
:100040000C9465000C9465000C9465000C9465009C
:100050000C9465000C9465000C9465000C9465008C
:100060000C9465000C9465000C9465000C9465007C
:100070000C9465000C9465000C9465000C9465006C
:100080000C9465000C9465000C94650011241FBE4F
:10009000CFEFD0E4DEBFCDBF11E0A0E0B1E0E4EFF0
:1000A000F4E000E00BBF02C007900D92A431B1074D
:1000B000D9F721E0A4E1B1E001C01D92AD31B20752
:1000C000E1F70E9445020C9478020C940000CF9353
:1000D000DF9300D01F92CDB7DEB789837B836A831D
:1000E00089818A3031F48A819B81BC018DE00E9434
:1000F000670080EC90E0FC018081882F90E08072A6
:100100009927892BB1F386EC90E02981FC012083AB
:1001100080E090E00F900F900F90DF91CF910895C5
:10012000CF93DF93CDB7DEB781E890E02BE0FC0101
:10013000208388E890E02DE730E0FC0131832083C4
:100140008FE690E022E0FC01208384E890E0FC014F
:100150001182108280910E0190910F01A0911001E7
:10016000B09111018093150190931601A09317018E
:10017000B09318018FE590E02FE530E0F901208180
:100180002068FC0120830000DF91CF910895CF9378
:10019000DF93CDB7DEB781E890E0FC01108200006C
:1001A000DF91CF910895CF93DF93CDB7DEB781E094
:1001B000809314010000DF91CF9108951F920F9258
:1001C00000905F000F92112400905B000F922F931C
:1001D0003F934F935F936F937F938F939F93AF93CF
:1001E000BF93EF93FF93CF93DF93CDB7DEB78091AB
:1001F000150190911601A0911701B0911801019776
:10020000A109B1098093150190931601A0931701DC
:10021000B09318018091150190911601A0911701DA
:10022000B0911801892B8A2B8B2B91F40E94D3005B
:1002300080910E0190910F01A0911001B0911101D8
:100240008093150190931601A0931701B0931801A4
:100250000000DF91CF91FF91EF91BF91AF919F91FE
:100260008F917F916F915F914F913F912F910F905F
:1002700000925B000F9000925F000F901F90189506
:10028000CF93DF9300D000D0CDB7DEB769837A83F8
:100290008B839C8389819A81AB81BC8180930E0181
:1002A00090930F01A0931001B093110180910E0162
:1002B00090910F01A0911001B0911101809315014F
:1002C00090931601A0931701B093180100000F90AE
:1002D0000F900F900F90DF91CF910895CF93DF9300
:1002E000CDB7DEB780E290E0FC018081882F90E0FE
:1002F0008170992721E0892B09F020E0822F8093DB
:10030000190180911B0190911C018230910541F1EE
:100310008330910528F4009751F0019779F056C089
:100320008330910579F1049709F43EC04FC081E014
:1003300090E090931C0180931B0148C080911901AB
:10034000813039F482E090E090931C0180931B018E
:100350003DC081E090E090931C0180931B0136C06A
:1003600080911901882339F483E090E090931C0177
:1003700080931B012BC082E090E090931C0180933E
:100380001B0124C080911901813039F484E090E090
:1003900090931C0180931B0119C083E090E090931F
:1003A0001C0180931B0112C080911901882339F42C
:1003B00081E090E090931C0180931B0106C084E0D3
:1003C00090E090931C0180931B01000080911A0122
:1003D000882F90E08130910581F0823091051CF4E6
:1003E000892B39F016C08230910559F0039769F0D6
:1003F00010C081E08093120110C082E0809312014E
:100400000CC084E08093120108C082E08093120146
:1004100004C081E080931201000080911B01909143
:100420001C018230910541F18330910528F4009739
:1004300029F1019739F025C08330910509F104971E
:1004400071F01FC080911A01833030F480911A013D
:100450008F5F80931A0115C010921A0112C080910B
:100460001A01833030F480911A018F5F80931A0152
:1004700008C010921A0105C0000003C0000001C0AE
:1004800000000000DF91CF910895CF93DF93CDB7A7
:10049000DEB781E290E0FC0110828AE290E02FE07A
:1004A000FC01208382E290E021E0FC0120838BE2CA
:1004B00090E021E0FC0120836CE271E080E090E0BC
:1004C0000E9440010E94900010921C0110921B019A
:1004D0000E946E018BE290E020911201FC012083CA
:1004E0000000809114018823E1F310921401F0CFF1
:0404F000F894FFCFAE
:1004F400000000020000000067000000000001008E
:0405040000000100F2
:00000001FF
